:100000000C94DB000C94DA090C94B3090C948C0961
:100010000C9465090C9403010C9403010C943E09A3
:100020000C9403010C9403010C94010A0C94700AC3
:100030000C9403010C9403010C9403010C94030130
:100040000C9403010C9403010C9403010C94030120
:100050000C9403010C9403010C9403010C94F40818
:100060000C9403010C9403010C9403010C94030100
:100070000C9403010C9403010C9403010C940301F0
:100080000C9403010C9403010C9403010C940301E0
:100090000C9403010C9403010C9403010C940301D0
:1000A0000C9403010C9403010C940301080B00024F
:1000B0000202000009040000010202000005240001
:1000C0001001052401010104240206052406000193
:1000D0000705810310004009040100020A00000026
:1000E00007050202400000070583024000000403E8
:1000F000090412010002EF02014041233680000191
:100100000102030141726475696E6F204C4C43001B
:1001100041726475696E6F204C656F6E6172646FB9
:1001200000070605040100080A0B0C0D0900000079
:1001300000250028002B002E0031000000000024C4
:100140000027002A002D0030000000000200090FE7
:100150000000030401000C0000000000000000008B
:100160000000000000000000040802011040804070
:1001700010204080408008020401804020100201CD
:10018000108010204040200000000023002600299D
:10019000002C002F000404040404030405020202DE
:1001A0000204030202020206060606060604040210
:1001B00002020404A20C11241FBECFEFDAE0DEBF5E
:1001C000CDBF11E0A0E0B1E0EAE8FBE202C005909B
:1001D0000D92A634B107D9F722E0A6E4B1E001C040
:1001E0001D92AC38B207E1F710E0CBEDD0E004C0CF
:1001F0002197FE010E947414CA3DD107C9F70E94DD
:10020000770F0C94C3150C9400004F925F926F927D
:100210007F928F929F92AF92BF92CF92DF92EF9296
:10022000FF920F931F93CF93DF93E5010C151D05EC
:100230002E053F050CF051C0280139014601570138
:10024000882309F44FC0CA01DB0184159505A60572
:10025000B70514F4D301C201B501A40188159905AD
:10026000AA05BB0514F4AC01BD01C016D106E20617
:10027000F30664F4D501C401841B950BA60BB70BE0
:10028000AC01BD01440D551D661D771D9A01AB01E2
:100290002419350946095709AFEFBFEF0E946413CF
:1002A000A501940124193509460957090E944513EF
:1002B0002883398382E090E0DF91CF911F910F91E5
:1002C000FF90EF90DF90CF90BF90AF909F908F9076
:1002D0007F906F905F904F900895260137014801FD
:1002E0005901AECF90E080E0E7CFFC0180918B0117
:1002F000882311F13FB7F89482E08093E9002091C0
:10030000F200822F90E01816190614F481E090E0B4
:10031000882339F0289844E640938A014091F100FF
:100320004083222339F02091F200211103C02BE6F3
:100330002093E8003FBF08958FEF9FEF0895282F87
:1003400030E0F901E75BFE4F9491F901E859FE4F67
:1003500084912B563E4FF9012491222309F45BC06E
:100360009923E9F091509F30D0F4E92FF0E0E55463
:10037000FE4F0C947414E601EA01CA01DE01E201A9
:10038000CF01CF01CF01ED01F301F701FB01010224
:10039000CF010502909180009F7790938000E22F1B
:1003A000F0E0EE0FFF1FE957FE4FA591B491EC91DD
:1003B000E82381E090E089F580E008959091800045
:1003C0009F7DEBCF90918000977FE7CF94B59F778B
:1003D00094BDE5CF94B59F7DFBCF909190009F7722
:1003E00090939000DCCF909190009F7DF9CF9091F9
:1003F0009000977FF5CF9091C0009F779093C000B9
:10040000CECF9091C0009F7DF9CF9091C200977F91
:100410009093C200C4CF80E090E00895CF93DF9323
:1004200090E0FC01E859FE4F24918B569E4FFC0151
:1004300084918823C9F090E0880F991FFC01E55C46
:10044000FE4FA591B491FC01E35DFE4FC591D4919F
:1004500061110DC09FB7F8948C91209582238C93E5
:100460008881282328839FBFDF91CF910895623030
:1004700051F49FB7F8943C91822F809583238C93FD
:10048000E8812E2BEFCF8FB7F894EC912E2B2C9385
:100490008FBFEACF8251E82FF0E0EF5DFE4FE4918D
:1004A00090917B008E2F880F880F80729F7D892B03
:1004B00080937B00E770E064E0937C0080917A0099
:1004C000806480937A0080917A0086FDFCCF8091D1
:1004D00078009091790008953FB7F8948091860153
:1004E00090918701A0918801B091890126B5A89BC0
:1004F00005C02F3F19F00196A11DB11D3FBFBA2FB6
:10050000A92F982F8827BC01CD01620F711D811D75
:10051000911D42E0660F771F881F991F4A95D1F7FA
:100520000895CF92DF92EF92FF920E946C026B01CE
:100530007C010E946C026C197D098E099F09683E3E
:10054000734081059105A8F3FF90EF90DF90CF9065
:100550000895089540916D0150916E0120916B01B5
:1005600030916C0142175307B4F49091E8009570F4
:10057000E1F39091E80092FD19C08093F100809121
:100580006D0190916E0101968F739927892B19F453
:100590008EEF8093E80080916D0190916E0101963D
:1005A00090936E0180936D0181E0089580E008953D
:1005B000EF92FF920F931F93CF93DF93F82E192F93
:1005C000E62E042F81E0860F880F0E94AA0283E0A6
:1005D0000E94AA02CF2DD12FEC0EFD2EF11CCE15BC
:1005E000DF05B9F007FF13C0FE0184910E94AA0243
:1005F000182F80E00E94AA02812321968111EFCF5B
:10060000DF91CF911F910F91FF90EF900895888116
:10061000EDCF81E0F5CFDF92EF92FF920F931F9322
:10062000CF93DF93D82E8A01EB017B01E40EF51EF8
:10063000CE15DF0559F0D7FE12C0FE0184910E944D
:10064000AA0221968111F4CF0FEF1FEFC801DF91AD
:10065000CF911F910F91FF90EF90DF9008958881C7
:10066000EECF2FB7F89487708093E9009091E8005F
:10067000892F807295FF04C09091F20080E4891B5D
:100680002FBF08957F928F929F92AF92BF92CF9289
:10069000DF92EF92FF920F931F93CF93DF93C82EB9
:1006A0008B017A0180918B01811110C08FEF9FEF38
:1006B000DF91CF911F910F91FF90EF90DF90CF903E
:1006C000BF90AF909F908F907F900895809171011F
:1006D00080FF05C08091E00082608093E000CE2D15
:1006E000DF2DD12C8AEFB82E8C2D8770982E8C2D73
:1006F0008072882E8C2D8074782E9AE3A92E2097F4
:1007000019F4DD2009F44EC08C2D0E9431038111B3
:1007100006C0BA94BB2051F20E949102F0CF8C1710
:100720001D0611F00CF08C2F9FB7F8949092E90001
:100730002091E80025FD02C09FBFE1CF282F30E0C7
:10074000C21BD30B882029F08150A0F01092F10039
:10075000FBCFF801C7FC0AC0815050F04191409393
:10076000F100FACF44914093F10031968150D0F7D7
:10077000020F131FDD2021F0A092E800D12CDCCF66
:100780008091E80085FD07C0A092E800DD24D394A5
:10079000209791F2F3CF209779F6772069F2A09213
:1007A000E800CACF5D9884E680937001C70180CFCE
:1007B000615030F02091F100FC0120830196F8CFC8
:1007C000289884E680938A010895809163018111BD
:1007D0000DC082E080935F0184E0809360011092FD
:1007E00062011092610181E0809363018FE591E0E5
:1007F00008950F931F93CF93DF931F92CDB7DEB76A
:1008000082E0898342E450E06CEA70E080E80E9474
:100810000B030E94E503DC0112960D911C9101155A
:10082000110589F0D801ED91FC910280F381E02D52
:10083000BE016F5F7F4FC801099597FD04C0F801A5
:1008400000851185ECCF89810F90DF91CF911F91A9
:100850000F910895CF93DF93EC01809112018823CB
:1008600031F083E00E9442031816190634F081E04B
:1008700090E09B838A8380E090E0DF91CF910895A0
:10088000CF93DF931F92CDB7DEB76983DC01ED9183
:10089000FC910280F381E02D41E050E0BE016F5FEA
:1008A0007F4F09950F90DF91CF91089583E080935A
:1008B000E9008091F200882319F08AE38093E80030
:1008C000089583E00E94310390E00895CF93DF9371
:1008D0001F92CDB7DEB7FC018485958597FD08C0D2
:1008E0002FEF3FEF358724870F90DF91CF91089549
:1008F000CE0101960E947501019719F4898190E05B
:10090000F3CF8FEF9FEFF0CF0F931F93CF93DF9332
:100910001F92CDB7DEB78C01FC018485958597FFCA
:100920000BC0CE0101960E947501019771F4898177
:1009300090E0F80195878487F801848595850F906C
:10094000DF91CF911F910F9108958FEF9FEFF1CF1E
:100950002FB7F89480918C0190918D01A0918E0118
:10096000B0918F012FBF8093980190939901A0932C
:100970009A01B0939B0180E991E00E94840497FF63
:1009800026C02FB7F89480918C0190918D01A09191
:100990008E01B0918F012FBF409198015091990124
:1009A00060919A0170919B01841B950BA60BB70B6C
:1009B0004091940150919501609196017091970139
:1009C00084179507A607B707B0F28FEF9FEF08953A
:1009D000FC018485958597FD0BC09FB7F89482E054
:1009E0008093E9008091F2009FBF90E00196089506
:1009F0009FB7F89482E08093E9008091F2009FBF56
:100A000090E00895DC01FB0112962C9112978481ED
:100A100095812817190641F491818081813A31F43A
:100A20009D7F81E0913009F080E008958132E1F707
:100A30009B3029F482811F968C9381E008959A302F
:100A400099F7828150968C93F8CFDC01FB0188E402
:100A5000808389E4818384E482831D969C911D9721
:100A60009F709F5B93831D968D919C9124E096953A
:100A700087952A95E1F78F708F5B848385E00895D1
:100A8000EF92FF920F931F93CF93DF93FB0120818F
:100A9000213889F52381223271F5DC0112964C91BF
:100AA000248135814217130631F58C01FC01C38581
:100AB000D485F12CE12C209791F04C815D816A81E5
:100AC0007B818E81811180E80E940B038F3F980704
:100AD00059F0E80EF91E0990D881C02DECCF81E0C5
:100AE000D8011F968C93C701DF91CF911F910F9171
:100AF000FF90EF90089590E080E0F6CFCF93DF93E2
:100B0000CDB7DEB769970FB6F894DEBF0FBECDBF85
:100B1000FC01DB018C918F5F8C939E012D5F3F4F19
:100B20008DE0D9011D928A95E9F729E0298384E0B7
:100B30008A8391E09D8383E08E832A8721E22B873D
:100B40009C879D879F8722E2288B27E02B8B25E0BF
:100B50002C8B8E8B20E430E0388F2F8B998F828105
:100B60008B8395858685998B8A8B838180688D8B15
:100B700049E150E0BE016F5F7F4F80E00E940B03B0
:100B800069960FB6F894DEBF0FBECDBFDF91CF914F
:100B90000895CF93DF9380915701811167C081E061
:100BA00080934A0180934B0120E531E030934D0161
:100BB00020934C0110924F0110924E012BE231E034
:100BC0003093470120934601109252011092510137
:100BD0001092540110925301809355018093560155
:100BE00081EC809350010E94E503FC01818190918A
:100BF0004A01482F490F5527551F483051059CF58C
:100C0000A281B381109709F526E431E03383228372
:100C10002081209348018093490180914B01820FEC
:100C2000808320914C01A22FB0914D018A2F821B0D
:100C30008917C8F481813D91C82FD0E0C050DF4FA3
:100C400038838F5F8183F2CFD90118962D913C9123
:100C5000199721153105C1F726E431E019963C9327
:100C60002E931897D5CF81E08093570186E491E0C9
:100C7000DF91CF910895DC01ED91FD918081ED919F
:100C8000FD919081ED91FD916C9163708E2309F03F
:100C900064609F2309F06860E8E5F6E0E60FF11D67
:100CA000659565956D936D917D918D919D9109945B
:100CB00023C01AC012C016C010C01EC009C014C084
:100CC00013C006C019C009C00DC007C00DC014C0B4
:100CD00062507040804090400BC061507040804036
:100CE000904006C06E5F01C06F5F7F4F8F4F9F4F78
:100CF0009E938E937E936E9308958091E0019091E0
:100D0000E1010C943B068091E2019091E3010C9487
:100D10003B068091E4019091E5010C943B068091A3
:100D2000E6019091E7010C943B068091E8019091D7
:100D3000E9010C943B064F925F926F927F928F92E3
:100D40009F92AF92BF92CF92DF92EF92FF920F935A
:100D50001F93CF93DF93CDB7DEB74DB65EB68091CC
:100D60007B022DB73EB7281B31090FB6F8943EBF62
:100D70000FBE2DBF8DB79EB701963C0180901E021D
:100D8000912C80911A0290911B02D301FC019F01CA
:100D9000281B390B281539051CF421912D93F7CF09
:100DA00080911F02882359F18091160290911702B9
:100DB00028E097FD09C068E671E00E9460146DE2CA
:100DC00070E00E946014262F809118029091190201
:100DD00068E097FD08C068E671E00E9460146DE26B
:100DE00070E00E946014F301E80DF91D90E1699F25
:100DF000B0011124262B2083F40131964F015301B9
:100E0000A80CB91CC0902602D0902702E0902802BE
:100E1000F0902902009122021091230220912402D5
:100E2000309125024091EA015091EB016091EC0173
:100E30007091ED018091200281700E940501880E61
:100E4000991E5301A80CB91CC0902E02D0902F02FD
:100E5000E0903002F090310200912A0210912B02B2
:100E600020912C0230912D024091EE015091EF0122
:100E70006091F0017091F10180912002869581705E
:100E80000E940501880E991E5301A80CB91CC09040
:100E90003602D0903702E0903802F090390200918B
:100EA0003202109133022091340230913502409188
:100EB000F2015091F3016091F4017091F50180917C
:100EC000200282FB882780F90E940501880E991E66
:100ED0005301A80CB91CC0903E02D0903F02E09094
:100EE0004002F090410200913A0210913B022091A1
:100EF0003C0230913D024091F6015091F701609122
:100F0000F8017091F9018091200283FB882780F914
:100F10000E940501880E991E5301A80CB91CC090AF
:100F20004602D0904702E0904802F09049020091BA
:100F300042021091430220914402309145024091B7
:100F4000FA015091FB016091FC017091FD018091CB
:100F50002002829581700E940501880E991E53011E
:100F6000A80CB91CC0904E02D0904F02E0905002E5
:100F7000F090510200914A0210914B0220914C02D4
:100F800030914D024091FE015091FF0160910002AD
:100F9000709101028091200285FB882780F90E94D0
:100FA0000501880E991E5301A80CB91CC090560269
:100FB000D0905702E0905802F090590200915202EE
:100FC0001091530220915402309155024091060233
:100FD00050910702609108027091090280912102EC
:100FE00081700E940501880E991E5301A80CB91C3E
:100FF000C0905E02D0905F02E0906002F0906102CB
:1010000000915A0210915B0220915C0230915D02C6
:101010004091020250910302609104027091050216
:1010200080912102869581700E940501880E991E8B
:101030005301A80CB91CC0906602D0906702E090E2
:101040006802F0906902009162021091630220919F
:1010500064023091650240910A0250910B02609146
:101060000C0270910D028091210282FB882780F989
:101070000E940501880E991E5301A80CB91CC0904E
:101080006E02D0906F02E0907002F09071020091B9
:101090006A0210916B0220916C0230916D024091B6
:1010A0000E0250910F026091100270911102809116
:1010B000210283FB882780F90E940501880D991D74
:1010C0005301A80EB91EC0907602D0907702E0902E
:1010D0007802F090790200917202109173022091CF
:1010E0007402309175024091120250911302609186
:1010F00014027091150280912102829581700E94E4
:1011000005010E94C9054C0140917B0280917A0241
:1011100050E05A01FFEFAF1ABF0A2DB73EB72A19A8
:101120003B090FB6F8943EBF0FBE2DBF0DB71EB7DB
:101130000F5F1F4FEDB7FEB78183B301C801019662
:101140000E94BA15F4018381A501B80180640E9450
:1011500042030FB6F8945EBE0FBE4DBEDF91CF9135
:101160001F910F91FF90EF90DF90CF90BF90AF90C5
:101170009F908F907F906F905F904F900895282F51
:1011800080911D0261111BC0281768F5E0911A02B9
:10119000F0911B0281E090E0A0E0B0E004C0880F75
:1011A000991FAA1FBB1F2A95D2F78095908189238A
:1011B000808380911C028823B1F00C949B06281731
:1011C00090F4E0911A02F0911B0281E090E0A0E01F
:1011D000B0E004C0880F991FAA1FBB1F2A95D2F741
:1011E0002081822BE5CF08951F920F920FB60F92A8
:1011F00011242F933F938F939F93AF93BF9380912D
:101200008C0190918D01A0918E01B0918F01309150
:10121000850123E0230F2D3758F50196A11DB11D3F
:101220002093850180938C0190938D01A0938E0172
:10123000B0938F018091860190918701A0918801E0
:10124000B09189010196A11DB11D809386019093F3
:101250008701A0938801B0938901BF91AF919F91BD
:101260008F913F912F910F900FBE0F901F90189567
:1012700026E8230F0296A11DB11DD2CF1F920F9217
:101280000FB60F9211242F933F934F935F936F9359
:101290007F938F939F93AF93BF93EF93FF93E091CF
:1012A0001F01F09120010995FF91EF91BF91AF913E
:1012B0009F918F917F916F915F914F913F912F916E
:1012C0000F900FBE0F901F9018951F920F920FB6A0
:1012D0000F9211242F933F934F935F936F937F93BC
:1012E0008F939F93AF93BF93EF93FF93E0911D0173
:1012F000F0911E010995FF91EF91BF91AF919F91E0
:101300008F917F916F915F914F913F912F910F90AE
:101310000FBE0F901F9018951F920F920FB60F924D
:1013200011242F933F934F935F936F937F938F93EA
:101330009F93AF93BF93EF93FF93E0911B01F091C5
:101340001C010995FF91EF91BF91AF919F918F91F2
:101350007F916F915F914F913F912F910F900FBEB1
:101360000F901F9018951F920F920FB60F92112495
:101370002F933F934F935F936F937F938F939F939D
:10138000AF93BF93EF93FF93E0911901F0911A018E
:101390000995FF91EF91BF91AF919F918F917F91AF
:1013A0006F915F914F913F912F910F900FBE0F90D2
:1013B0001F9018951F920F920FB60F9211242F9322
:1013C0003F934F935F936F937F938F939F93AF93CD
:1013D000BF93EF93FF93E0911701F09118010995E6
:1013E000FF91EF91BF91AF919F918F917F916F91FD
:1013F0005F914F913F912F910F900FBE0F901F90D3
:1014000018951F920F920FB60F9211248F939F93EE
:101410008091E1009091E100937F9093E10083FF40
:101420000FC01092E90091E09093EB001092EC0055
:1014300092E39093ED0010928B0198E09093F0006E
:1014400082FF22C093E09093E9009091F2009923EB
:1014500019F09AE39093E80090917001992341F07C
:1014600090917001915090937001911101C05D9A1B
:1014700090918A01992341F090918A019150909323
:101480008A01911101C0289A84FF18C08091E2005E
:101490008E7E81608093E2008091E1008F7E809358
:1014A000E100809171018E7E8061809371019F9136
:1014B0008F910F900FBE0F901F90189580FFF7CF60
:1014C0008091E2008E7E80618093E2008091E10055
:1014D0008E7E8093E100809171018E7E8160E5CFE8
:1014E0001F920F920FB60F921124CF92DF92EF92BC
:1014F000FF920F931F932F933F934F935F936F939D
:101500007F938F939F93AF93BF93EF93FF93CF936B
:10151000DF93CDB7DEB76C97DEBFCDBF1092E90089
:101520008091E80083FF25C068E0CE0145960E94C7
:10153000D80382EF8093E8008D8987FF39C09091AE
:10154000E80090FFFCCF982F907609F034C19E8977
:101550004F89588D2F89F88C911131C0803861F5F1
:10156000809172018093F1001092F1008EEF8093D0
:10157000E8006C960FB6F894DEBF0FBECDBFDF91CA
:10158000CF91FF91EF91BF91AF919F918F917F91FB
:101590006F915F914F913F912F911F910F91FF900C
:1015A000EF90DF90CF900F900FBE0F901F90189587
:1015B0009EEF9093E800C7CF1092F100D5CF913005
:1015C00059F48111D3CF4130510581F680917201D8
:1015D0008D7F80937201CACF933049F48111C6CFB9
:1015E0004130510519F6809172018260F2CF953039
:1015F00041F48091E80080FFFCCF20682093E30055
:10160000B5CF963009F0A9C00B8D1C8D22E0109249
:10161000E90010926E0110926D01F2122EC010922C
:101620006C0110926B010E94F9031F8299E099836B
:10163000FA8291E09E8390EA98879AEF99872091A9
:101640006D0130916E01275F3F4F3C832B838D836B
:101650001092E90010926E0110926D0110936C01CE
:1016600000936B0149E050E0BE016F5F7F4F80E067
:101670000E940B030E94F90379CF10936C01009331
:101680006B010E94E503DC0112960D911C9101157E
:10169000110509F451C1D801ED91FC910480F58147
:1016A000E02DBE016B5E7F4FC8010995009709F0E0
:1016B0003EC1F80100851185EACFF3E0FF120EC0AC
:1016C0008F89882309F440C0823061F440E860E1EA
:1016D00080E191E00E94D802811148CF81E280939D
:1016E000EB0047CF813029F440E86BE084E091E0E3
:1016F000F1CF833099F70E94E503DC011296ED905B
:10170000FC908E010F5F1F4F6801E114F10479F026
:10171000D701ED91FC910680F781E02DB801C7015A
:101720000995080F111DF701E084F184EECFD8016F
:101730001C92F60101900020E9F73197BF016C1966
:101740007D0940E0C601C6CF6EEE70E0FB0144911A
:1017500050E080E80E940B0309CF973009F4BECF18
:10176000983021F481E08093F10000CF993009F0A6
:10177000FDCE837009F0B2CFE1E0F1E081E031E02D
:1017800096E32191222371F08093E9003093EB00DE
:10179000DF0111972C912093EC009093ED008F5F67
:1017A000873079F78EE78093EA001092EA008F89FC
:1017B00080938B01DBCE8B8D9C8D1092E900109273
:1017C0006E0110926D0190936C0180936B01898D75
:1017D000811192C08E899D89913A49F4813209F034
:1017E0007DCF47E050E06BE071E080E0B3CF913215
:1017F00009F074CF833269F48F89988DB0E0A0E04E
:101800008093070190930801A0930901B0930A0106
:10181000ADCE803269F48091E80082FFFCCF67E0B2
:101820008BE091E00E94D8038BEF8093E8009ECE7E
:10183000823209F09BCE8F8980931201EEEFFFE791
:10184000859194918B3F9C4D51F1E0E0F8E08091BF
:101850000B0190910C01A0910D01B0910E01803B04
:101860009440A105B105F1F48091120180FD1AC0E8
:10187000EE3F8AE0F80789F587E797E79183808351
:101880008091600080936F0188E19BE00FB6F8942F
:10189000A895809360000FBE9093600067CEEEEF36
:1018A000FAE0D5CF808191818737974709F05ECEE6
:1018B000A8958091600088618093600080916F019D
:1018C00080936000EE3F2AE0F20789F08091FE0AE3
:1018D0009091FF0A9183808349CE808191818737DF
:1018E000980751F29093FF0A8093FE0AC5CF109299
:1018F000FF0A1092FE0A3ACE0E94E503DC0112961E
:101900000D911C910115110509F4E8CED801ED9156
:10191000FC910190F081E02DBE016B5E7F4FC8010C
:101920000995811123CEF80100851185EBCF18169A
:1019300019060CF41BCED2CEF1E0FF12BECE62EF40
:1019400070E004CFEF92FF920F931F93CF93DF933A
:10195000CDB7DEB7C659D1090FB6F894DEBF0FBEBA
:10196000CDBF109293011092920188EE93E0A0E017
:10197000B0E08093940190939501A0939601B09369
:10198000970187E391E090939101809390018FEF0D
:101990009FEF90939D0180939C0162E081E00E9403
:1019A0000E0262E080E00E940E02E6E9F1E0E491BE
:1019B000F0E0EE0FFF1FE957FE4FA591B491B093F1
:1019C0007D02A0937C02E9E6F1E0649160938002DD
:1019D000E5E9F1E0E491F0E0EE0FFF1FE957FE4F7B
:1019E0002591349130937F0220937E02E8E6F1E066
:1019F000E491E0938102109283021092840210928B
:101A00008502109286024BE35FE1CA010197F1F76C
:101A10009C91862F892391E009F490E0D9018C9163
:101A2000E82309F092602CE732E090938202309331
:101A3000E7012093E6018FE896E090931E018093E2
:101A40001D01809169008F73806480936900EB9A17
:101A500081E0809387023093E5012093E40129E837
:101A600036E030931C0120931B01909169009F7C0C
:101A7000906190936900EA9A22E020938702109285
:101A80001B0210921A0210921E0210922202109251
:101A9000230210922402109225024FEF53E060E0DF
:101AA00070E04093260250932702609328027093BF
:101AB000290210922A0210922B0210922C021092EC
:101AC0002D0240932E0250932F02609330027093A8
:101AD00031021092320210923302109234021092AC
:101AE0003502409336025093370260933802709368
:101AF000390210923A0210923B0210923C0210926C
:101B00003D0240933E0250933F0260934002709327
:101B1000410210924202109243021092440210922B
:101B200045024093460250934702609348027093E7
:101B3000490210924A0210924B0210924C021092EB
:101B40004D0240934E0250934F02609350027093A7
:101B500051021092520210925302109254021092AB
:101B60005502409356025093570260935802709367
:101B7000590210925A0210925B0210925C0210926B
:101B80005D0240935E0250935F0260936002709327
:101B9000610210926202109263021092640210922B
:101BA00065024093660250936702609368027093E7
:101BB000690210926A0210926B0210926C021092EB
:101BC0006D0240936E0250936F02609370027093A7
:101BD00071021092720210927302109274021092AB
:101BE0007502409376025093770260937802709367
:101BF000790235E130937A0247E040931D0210925A
:101C00001F0299E390932002B0E1B0932102E5E036
:101C1000E9838A8399E09B83F4E0FC83A1EAAD83A6
:101C20008E8355E85F833887E9879A8759E15B8718
:101C30008C8759E25D874E873F87188A55E2598B1A
:101C40008A8B65E76B8B8C8B55E95D8B4E8B45E5FD
:101C50004F8B188E45E6498F1A8E41E84B8F2C8F9B
:101C60006D8F8E8F5F8F88A349A373E07AA3EBA358
:101C70008CA39DA38EA33FA318A617E219A77FEFFD
:101C80007AA77BA71CA61DA66EA7BFA758ABF9AB6A
:101C9000AAAB1BAA9CABF0E3FDAB9EABF3E3FFAB9F
:101CA00098AFF4E3F9AF9AAFF5E3FBAF4CAF2DAFCC
:101CB000F0ECFEAFEFAF21962FAF219722963FAF0A
:101CC000229723961FAE239724961FAF249725961D
:101CD0007FAF259726967FAF269727961FAE27972B
:101CE00028961FAE289729966FAF29972A96BFAFDF
:101CF0002A972B965FAF2B972C968FAF2C972D960C
:101D0000AFAF2D972E961FAE2E972F969FAF2F9782
:101D100088EC60968FAF609761964FAF619762963F
:101D20002FAF62976396FFAF63976496FFAF649798
:101D300083E590E00E9495147C0183E5FE013196D5
:101D4000D70101900D928A95E1F787E090E00E941B
:101D500095148C01FC0111821082F382E28283E5EA
:101D600090E09583848316820E94C905FC01A385B7
:101D7000B485109709F0A3C01487038785859685DD
:101D8000D80114962D913C91820F931F96878587D9
:101D900090911D02892F869586958695977009F0FA
:101DA00096C080931E0210911E02812F90E0009732
:101DB00011F481E090E00E94951490931B028093AF
:101DC0001A0281E090911F02911101C080E0165F1C
:101DD000810F80937B021092EA011092EB01109226
:101DE000EC011092ED011092EE011092EF011092B1
:101DF000F0011092F1011092F2011092F301109291
:101E0000F4011092F5011092F6011092F701109270
:101E1000F8011092F9011092FA011092FB01109250
:101E2000FC011092FD011092FE011092FF01109230
:101E3000000210920102109202021092030210920C
:101E400004021092050210920602109207021092EC
:101E500008021092090210920A0210920B021092CC
:101E60000C0210920D0210920E0210920F021092AC
:101E7000100210921102109212021092130210928C
:101E80001402109215028FEF9FEF90931702809328
:101E90001602909319028093180290E080E020913E
:101EA0001E0228171906A9F0A4F0E0911A02F09179
:101EB0001B02E80FF91F10820196F1CFDC018D9112
:101EC0009C9111970097D1F70D931C9357CF8F5F7B
:101ED00068CFCA56DF4F0FB6F894DEBF0FBECDBF36
:101EE000DF91CF911F910F91FF90EF90089578941B
:101EF00084B5826084BD84B5816084BD85B582600F
:101F000085BD85B5816085BD80916E0081608093BF
:101F10006E00109281008091810082608093810028
:101F20008091810081608093810080918000816038
:101F300080938000809191008260809391008091D5
:101F400091008160809391008091900081608093E6
:101F500090008091C10084608093C1008091C10095
:101F600082608093C1008091C10081608093C10034
:101F70008091C30081608093C3008091C000826023
:101F80008093C0008091C20081608093C2008091E4
:101F90007A00846080937A0080917A0082608093D6
:101FA0007A0080917A00816080937A0080917A0033
:101FB000806880937A0010928B01109272011092C7
:101FC00071018091D70081608093D70080EA80936F
:101FD000D80089B5806189BD89B5826089BD09B4A1
:101FE00000FEFDCF0E9491028091D8008F7C80611D
:101FF0008093D8008091E000807F8093E000809102
:10200000E1008E7E8093E1008DE08093E200559A9E
:10201000209A8FEF9FEF90939D0180939C0141E068
:1020200050E86FEF7FEF40933A0250933B0260938A
:102030003C0270933D028FEF9FE7A0E0B0E08093F9
:102040003E0290933F02A0934002B093410240931E
:10205000420250934302609344027093450280937E
:10206000460290934702A0934802B09349024093DE
:102070004A0250934B0260934C0270934D0280933E
:102080004E0290934F02A0935002B093510260E031
:1020900084E00E940E0260E085E00E940E0260E093
:1020A00086E00E940E0260E087E00E940E0260E07F
:1020B00088E00E940E0260E089E00E940E0281E04A
:1020C00080931C020E949B0644244A9493E0592E5C
:1020D000612C712C22242394312C80E991E00E9400
:1020E000E804181619060CF08AC00E94A804FC0126
:1020F00097FDC5C18D32910509F04CC0812C912C02
:1021000080E8A82E8FE3B82EC12CD12C7601C0E038
:10211000D0E0E130F10559F1ED32F10509F447C0A5
:10212000EE32F10509F445C0CF01C0970A97F8F4E3
:10213000AAE0B0E0A70196010E9464136F01FF0FAF
:10214000EE08FF08C60ED71EE81EF91E80E3C81A67
:10215000D108E108F108CC2351F02DEC3CEC4CEC1B
:102160005DE3C501B4010E9487124B015C0180E967
:1021700091E00E9466040E94A804FC01C0970A979F
:1021800040F2EE32F105B9F4CC2319F2CD2FD11182
:1021900018C025C0C0970A9708F4B0CFEE32F105F9
:1021A00009F4ACCF80E991E00E9466049ECFD1E0B3
:1021B000DECFC1E0DCCFE130F10509F4AACFDD23A9
:1021C00041F0F094E094D094C094C11CD11CE11C67
:1021D000F11CC701B6010E944C12CC2341F0C7018B
:1021E000B6010E944C12A50194010E9487126093CF
:1021F00081017093820180938301909384016091A7
:1022000081017091820180918301909184010E94EB
:102210001A149B01AC01AAEBBFEF0E9472132CE2CF
:1022200031E040E050E00E944513CA01B9016C5909
:102230007F4F8F4F9F4F0E944C1220E030E048ECC0
:1022400052E40E94A81360931301709314018093C9
:1022500015019093160180918702823008F013C116
:10226000F8948CE792E00E943B06C0908302D090E5
:102270008402E0908502F0908602789420E030E8B5
:1022800045E454E4609113017091140180911501AB
:10229000909116010E9487120E941A149B01AC01B2
:1022A000C701B6010E9450142CE532E140E050E035
:1022B0000E944513032E000C440B550B2093EA019A
:1022C0003093EB014093EC015093ED0180911C029F
:1022D00081110E949B0684E00E949F015C01909303
:1022E000800180937F0185E00E949F016C019093A3
:1022F0007E0180937D0186E00E949F017C01909386
:102300007C0180937B0187E00E949F018C01909368
:102310007A018093790188E00E949F01EC019093FB
:1023200078018093770189E00E949F014C0190938E
:10233000760180937501A114B10409F0A6C0C114FF
:10234000D10409F0A2C0E114F10409F09EC0011506
:10235000110509F09AC0209709F097C0892B09F060
:1023600094C030927401209273016091730180E0F7
:102370000E94BF086A2D81E00E94BF086C2D82E098
:102380000E94BF086E2D83E00E94BF08602F84E08A
:102390000E94BF086C2F85E00E94BF08682D86E070
:1023A0000E94BF0882E10E944A022EEF3FEFDC014B
:1023B0000E947A14A30192010E9445132F5F3F47A8
:1023C00041095109032E000C440B550B2093F601D3
:1023D0003093F7014093F8015093F90180911C026A
:1023E00081110E949B0683E10E944A022EEF3FEF7B
:1023F000DC010E947A14A30192010E9445132F5F11
:102400003F4741095109032E000C440B550B209303
:10241000FA013093FB014093FC015093FD01809140
:102420001C0281110E949B0685E10E944A022EEF48
:102430003FEFDC010E947A14A30192010E94451330
:102440002F5F3F4741095109032E000C440B550BE8
:102450002093FE013093FF0140930002509301024C
:1024600080911C0281110E949B060E94910280E0D3
:1024700090E0892B09F431CE0E9400002ECE60E05E
:1024800070E0CB01B4CEF894F0CE109274011092AB
:1024900073016BCFE89409C097FB3EF4909580954B
:1024A000709561957F4F8F4F9F4F9923A9F0F92F1A
:1024B00096E9BB279395F695879577956795B79598
:1024C000F111F8CFFAF4BB0F11F460FF1BC06F5F7E
:1024D0007F4F8F4F9F4F16C0882311F096E911C090
:1024E000772321F09EE8872F762F05C0662371F0B1
:1024F00096E8862F70E060E02AF09A95660F771FC5
:10250000881FDAF7880F9695879597F908950E94A6
:102510009A120C940B130E94FD1238F00E940413BF
:1025200020F0952311F00C94F4120C94FA1211245B
:102530000C943F130E941C1370F3959FC1F3950FE9
:1025400050E0551F629FF001729FBB27F00DB11D37
:10255000639FAA27F00DB11DAA1F649F6627B00DC7
:10256000A11D661F829F2227B00DA11D621F739FB0
:10257000B00DA11D621F839FA00D611D221F749FBE
:102580003327A00D611D231F849F600D211D822F05
:10259000762F6A2F11249F5750409AF0F1F088232C
:1025A0004AF0EE0FFF1FBB1F661F771F881F915059
:1025B0005040A9F79E3F510580F00C94F4120C9402
:1025C0003F135F3FE4F3983ED4F386957795679584
:1025D000B795F795E7959F5FC1F7FE2B880F911D83
:1025E0009695879597F9089597F99F6780E870E029
:1025F00060E008959FEF80EC089500240A94161679
:10260000170618060906089500240A9412161306E0
:10261000140605060895092E0394000C11F488236E
:1026200052F0BB0F40F4BF2B11F460FF04C06F5F8A
:102630007F4F8F4F9F4F089557FD9058440F551F60
:1026400059F05F3F71F04795880F97FB991F61F034
:102650009F3F79F087950895121613061406551FAB
:10266000F2CF4695F1DF08C0161617061806991F17
:10267000F1CF86957105610508940895E894BB270C
:1026800066277727CB0197F90895052E97FB1EF44F
:1026900000940E945C1357FD07D00E94771307FC3B
:1026A00003D04EF40C945C135095409530952195D1
:1026B0003F4F4F4F5F4F089590958095709561956E
:1026C0007F4F8F4F9F4F08950E949913A59F900DA4
:1026D000B49F900DA49F800D911D11240895B7FF04
:1026E0000C9464130E946413821B930B0895A1E25F
:1026F0001A2EAA1BBB1BFD010DC0AA1FBB1FEE1F7C
:10270000FF1FA217B307E407F50720F0A21BB30BC6
:10271000E40BF50B661F771F881F991F1A9469F742
:1027200060957095809590959B01AC01BD01CF019E
:102730000895A29FB001B39FC001A39F700D811D9A
:102740001124911DB29F700D811D1124911D0895BA
:102750000E94BC130C940B130E94041358F00E94A7
:10276000FD1240F029F45F3F29F00C94F41251114E
:102770000C943F130C94FA120E941C1368F39923D3
:10278000B1F3552391F3951B550BBB27AA2762176D
:102790007307840738F09F5F5F4F220F331F441F7A
:1027A000AA1FA9F335D00E2E3AF0E0E832D09150AE
:1027B0005040E695001CCAF72BD0FE2F29D0660F9B
:1027C000771F881FBB1F261737074807AB07B0E8DE
:1027D00009F0BB0B802DBF01FF2793585F4F3AF0E4
:1027E0009E3F510578F00C94F4120C943F135F3F18
:1027F000E4F3983ED4F3869577956795B795F7956A
:102800009F5FC9F7880F911D9695879597F9089551
:10281000E1E0660F771F881FBB1F621773078407ED
:10282000BA0720F0621B730B840BBA0BEE1F88F7FC
:10283000E09508950E9421146894B1110C943F13FF
:1028400008950E94241388F09F5798F0B92F992774
:10285000B751B0F0E1F0660F771F881F991F1AF08B
:10286000BA95C9F714C0B13091F00E943E13B1E09F
:1028700008950C943E13672F782F8827B85F39F09E
:10288000B93FCCF3869577956795B395D9F73EF424
:1028900090958095709561957F4F8F4F9F4F0895CC
:1028A000DB018F939F930E946413BF91AF91A29F0E
:1028B000800D911DA39F900DB29F900D112408953E
:1028C00097FB072E16F4009407D077FD09D00E94DD
:1028D000811407FC05D03EF4909581959F4F089593
:1028E000709561957F4F0895EE0FFF1F0590F4914D
:1028F000E02D09940E949913B7FF0895821B930B52
:102900000895AA1BBB1B51E107C0AA1FBB1FA61736
:10291000B70710F0A61BB70B881F991F5A95A9F788
:1029200080959095BC01CD0108950F931F93CF938F
:10293000DF938230910510F482E090E0E0918A020A
:10294000F0918B0230E020E0B0E0A0E0309799F405
:102950002115310509F44AC0281B390B24303105F3
:10296000D8F58A819B816115710589F1FB019383FB
:102970008283FE0111C04081518102811381481779
:102980005907E0F04817590799F4109761F012962B
:102990000C93129713961C933296CF01DF91CF912F
:1029A0001F910F91089500938A0210938B02F4CF28
:1029B0002115310551F04217530738F0A901DB0109
:1029C0009A01BD01DF01F801C1CFEF01F9CF90936A
:1029D0008B0280938A02CDCFFE01E20FF31F819319
:1029E00091932250310939832883D7CF20918802CF
:1029F00030918902232B41F420912301309124014D
:102A00003093890220938802209121013091220184
:102A10002115310541F42DB73EB740912501509164
:102A20002601241B350BE0918802F0918902E21700
:102A3000F307A0F42E1B3F0B2817390778F0AC01E1
:102A40004E5F5F4F2417350748F04E0F5F1F5093BE
:102A5000890240938802819391939FCFF0E0E0E058
:102A60009CCFCF93DF930097E9F0FC01329713825C
:102A70001282A0918A02B0918B02ED0130E020E039
:102A80001097A1F420813181820F931F2091880239
:102A9000309189022817390709F061C0F093890243
:102AA000E0938802DF91CF910895EA01CE17DF0706
:102AB000E8F54A815B819E0141155105B1F7E901B5
:102AC000FB83EA8349915991C40FD51FEC17FD0789
:102AD00061F4808191810296840F951FE9019983A9
:102AE0008883828193819B838A83F0E0E0E0129661
:102AF0008D919C9113970097B9F52D913C91119769
:102B0000CD010296820F931F209188023091890295
:102B10002817390739F6309751F510928B02109229
:102B20008A02B0938902A0938802BCCFD383C28368
:102B300040815181840F951FC817D90761F44E5FFA
:102B40005F4F88819981480F591F518340838A8143
:102B50009B81938382832115310509F0B0CFF093D7
:102B60008B02E0938A029ECFFD01DC01C0CF13826D
:102B70001282D7CFFB01DC0102C001900D924150BF
:0A2B80005040D8F70895F894FFCFF5
:102B8A0000C18081000000FFFFFFFF00E10000009C
:102B9A000000000000803FA902A902A902A902A917
:102BAA000200008C0280000000000002057E054041
:102BBA000525050000000040042A0461045604E8C3
:062BCA000466048404000F
:00000001FF
